:100000000C94B6020C94D5020C94D5020C94D50233
:100010000C94D5020C94D5020C94D5020C94D50204
:100020000C94D5020C94D5020C94D5020C94D502F4
:100030000C94D5020C94D5020C94D5020C94D502E4
:100040000C94D5020C94D5020C94D5020C94D502D4
:100050000C94D5020C942C1D0C94D5020C94D50252
:100060000C94D5020C9437160C9469160C94D50296
:100070000C94D5020C94D5020C94D5020C94D502A4
:100080000C94D5020C94D5020C94D5020C94D50294
:100090000C949B160C94CD160C94D5020C94D5029E
:1000A0000C94D5020C94D5020C94D5020C94D50274
:1000B0000C94D5020C94D5020C94D5020C94D50264
:1000C0000C94D5020C94D5020C94D5020C94D50254
:1000D0000C94D5020C94D5020C94D5020C94D50244
:1000E0000C94D5020C9463170C9495170C94D502BC
:1000F0000C94FF160C94D5020C94D5020C94311775
:100100000C94D5020C94D5020C94D5020C94D50213
:100110000C94D5020C94D5020C94D5020C94D50203
:10012000E92FE92FE92FAD2F13302130E92FE92FE7
:10013000AD2F13300D0A537461636B206F766572B7
:10014000666C6F773A20004661696C656420746F55
:1001500020737461727420726164696F0A00466171
:10016000696C656420746F206372656174652072C8
:100170006164696F0A00526164696F2E636F6E6615
:10018000206E6F7420666F756E640A00526561643C
:1001900020726164696F2E636F6E663A20436861F6
:1001A0006E6E656C3A2025752C2050616E49643A5C
:1001B00020253034582C20446573743A202530347F
:1001C000582C20536F757263653A20253034580AD5
:1001D0000009257509257509256C7509256C750AB1
:1001E000002575092573090925630925750049440A
:1001F000094E616D65090953746174650942507255
:10020000696F09435072696F09537461636B485792
:100210000952542028252909525420286D73290A8F
:10022000005254204D6561737572656D656E742062
:1002300054696D653A20256C75206D730A0052541F
:1002400020436F756E7465723A20256C750A0054F0
:100250006F74616C20686561703A202575422C20AE
:100260006672656520686561703A202575422C20AC
:100270006C6F77207761746572206D61726B3A20C4
:100280002575422C206C61726765737420667265F7
:100290006520626C6F636B3A202575420A004C65DD
:1002A000643A2025752D3E25750A0048656C6C6FF3
:1002B00020576F726C642E0A00456570726F6D2056
:1002C0003078253032583A203078253032580A00BC
:1002D00057726974696E67203078253032582074FF
:1002E0006F203078253032580A000A000A00253085
:1002F0003258200025630025640A004B696C6C6548
:10030000640A0046696C65206E6F7420666F756EB6
:10031000640A00496E76616C696420617267756D6C
:10032000656E74730A0057726F6E672023206F66C4
:1003300020617267756D656E74730A004F4B0A0019
:1003400025640A004E6F7420657865637574616278
:100350006C650A0046696C65206E6F7420666F7567
:100360006E640A002F3E2000436F6D6D616E642045
:10037000717565756520646F6573206E6F7420619B
:100380006772656520776974682062756666657254
:10039000210052657475726E2076616C75653A2025
:1003A000004661696C656420746F206578656375CB
:1003B00074652025733A2000436F6D6D616E642073
:1003C000746F6F206C6F6E672E0A002F3E200072D4
:1003D0006164696F2E636F6E6600000107009B0405
:1003E00063617400000000000000000002000030A3
:1003F0000A657772000000000000000000020000A3
:10040000C5096572640000000000000000000200E1
:1004100000FE096578697400000000000000000219
:100420000000C30968656C6C6F00000000000000EC
:10043000020000BC096C65640000000000000000C0
:10044000000200008B096D656D00000000000000D7
:100450000000020000580972740000000000000053
:1004600000000002000022097461736B7300000039
:100470000000000002000028087764747200000089
:100480000000000000020000E10400000000000085
:10049000000000000000040000000012FECA01007D
:1004A00000015472616E736D697420726573756CAE
:1004B000743A2025750A00446F6E650A005365740E
:1004C00074696E672053746174653A202575202E17
:1004D0002E2E200053657474696E672050413A20B7
:1004E00025750A0053657474696E6720504C4C3A48
:1004F0002025750A005061636B65742070756D70FE
:10050000206B69636B6564210A00525820416C6C52
:100510006F63206661696C0A0052582051756575D9
:10052000652066756C6C203A280A0052656365691F
:10053000766564207061636B657420286C656E203D
:100540002575290A00545258205061636B65742048
:1005500070756D702072656164792E0A000D0A490C
:100560006E76616C696420495251000011241FBEEF
:10057000CFEFD1E4DEBFCDBF12E0A0E0B2E0ECEF00
:10058000F7E600E00BBF02C007900D92A437B10759
:10059000D9F716E3A4E7B2E001C01D92A23CB1076F
:1005A000E1F70E94FC190C94FC330C94C717CF930D
:1005B000DF9343E060E081E00E94E5219093FF3506
:1005C0008093FE3581E090E00E942D33EC0100978E
:1005D00011F4CEEBDAEB80E19C2F9170D695C795A4
:1005E000913011F494EBD9278150B1F7BE0181E02D
:1005F00090E00E944133D0930136C093003620E052
:1006000040E050E060E070E08091FE359091FF3571
:10061000DF91CF910C94142220E04FEF5FEF60E068
:1006200070E08091FE359091FF350E9415238091F6
:1006300000369091013620E1382F317096958795DC
:10064000313021F435E983273DE893272150A1F784
:10065000909301368093003640E050E060E070E017
:100660008091FE359091FF350E94142280910036D2
:100670009091013608958F929F92AF92BF92CF9240
:10068000DF92EF92FF920F931F93CF93DF937C0142
:100690005B016A014901009711F182E190E00E943B
:1006A0007D1AEC010097D9F0C7010E947D1A998349
:1006B0008883892B89F0FB82EA821F821E821D8239
:1006C0001C82198618869D868C86BF86AE86D98A3E
:1006D000C88A1B870A8705C0CE010E94381BC0E06C
:1006E000D0E0CE01DF91CF911F910F91FF90EF905D
:1006F000DF90CF90BF90AF909F908F900895CF9351
:10070000DF93EC01009749F0888199810E94381BA2
:10071000CE01DF91CF910C94381BDF91CF910895DA
:100720000F931F93CF93DF93DC0118962D913C918B
:10073000199712968D919C9113972817390708F0F5
:100740004FC08B01C0E0D0E018968D919C91199715
:1007500012962D913C911397C417D50729F482174F
:10076000930709F03FC030C082179307C0F7F80124
:1007700061918F018D919C91119714962D913C91CF
:100780001597820F931FFC01608314968D919C91A5
:100790001597019615969C938E93149712962D910A
:1007A0003C9113978217930720F015961C921E9286
:1007B000149718968D919C911997019619969C9370
:1007C0008E9318972196C0CF1E96ED91FC911F979E
:1007D000309741F01C968D919C911D97099502C010
:1007E000C0E0D0E0CE01DF91CF911F910F9108952D
:1007F0000F931F93CF93DF93DC0118962D913C91BB
:1008000019972115310509F45AC01A960D911C91BA
:100810001B97C0E0D0E0C417D50721F402171307D7
:10082000B8F14FC018968D919C911997892BB1F30F
:100830006115710571F0ED91FC91119716968D91EE
:100840009C911797E80FF91F8081FB01EC0FFD1FAA
:10085000808316968D919C911797019617969C937D
:100860008E9316971296ED91FC9113978E179F0712
:1008700020F017961C921E92169718968D919C91B7
:100880001997019719969C938E9318972196C3CF29
:1008900018962D913C9119971A968D919C911B97C2
:1008A0008217930770F05096ED91FC915197309715
:1008B00041F01C968D919C911D97099502C0C0E056
:1008C000D0E0CE01DF91CF911F910F910895FC01EF
:1008D0008281938120853185821B930B0895FC01D1
:1008E000808591850895062FF72EF894C0E0C331D6
:1008F00058F4EC2FFF27E7FDF095EC5CFE4F849158
:100900000E94DA04CF5FF3CFC02FDF2D10E0899172
:10091000882331F0183021F00E94DA041F5FF7CFEE
:10092000A895C0E0E6CF20E0FC01E20FF11D308188
:10093000332321F0361711F02F5FF6CF822F089561
:10094000982F80ED890F8A3008F080E02FE9290F79
:10095000263010F489EA890F0895CF92DF92EF9242
:10096000FF921F93CF93DF93EC0160E070E0CB0127
:1009700010E0FE01E10FF11D2081222399F06B01AF
:100980007C0184E0CC0CDD1CEE1CFF1C8A95D1F7A9
:10099000822F0E94A004A7019601282BCA01B90149
:1009A0001F5FE7CFDF91CF911F91FF90EF90DF9016
:1009B000CF9008959091C00095FFFCCF8093C60022
:1009C0000895F894A89582E50E94DA048DE00E94CB
:1009D000DA048AE00E94DA042CE088E190E00FB6A5
:1009E000F894A895809360000FBE20936000FFCF1D
:1009F0000F931F93DB0160E070E06417750771F0DF
:100A00008C01060F171F222717FD2095322F2BBFB1
:100A1000F80107910D936F5F7F4FEFCF1F910F91FB
:100A20000895CF93DF93CDB7DEB7A9970FB6F894AB
:100A3000DEBF0FBECDBF8C01DC01ED91FC9120E04B
:100A400030E045E857E062ED77E0099560E870E056
:100A50008091BB369091BC360E949E0D6E01B1E133
:100A6000CB0ED11CBC01C6010E94920D8AE090E021
:100A70000E94C22943E060E081E00E94E52190935A
:100A80008D3680938C368091903690919136DC0132
:100A90001296ED91FC91139760E272E009957C014A
:100AA000009769F1DC015096ED91FC91519745E07A
:100AB00050E0BE016C5D7F4F0995D7015496ED91D2
:100AC000FC915597C70109958FA198A59F938F9386
:100AD0009F938F938EA18F938DA18F938CA11F9243
:100AE0008F938CE891E09F938F93DF92CF920E9437
:100AF000E0300FB6F894DEBF0FBECDBF10C086E762
:100B000091E09F938F93DF92CF920E94E03080E03C
:100B100090E00E9437270F900F900F900F90CE011A
:100B200001967C0180E1D7011D928A95E9F781E069
:100B300089838DA19EA19E838D838FA198A598877F
:100B40008F8384E08A8387E08B8384E190E00E9436
:100B5000C229B70180E090E00E9467137C010097F2
:100B600081F48EE591E09F938F93DF92CF920E9464
:100B7000E03080E090E00E9437270F900F900F90B8
:100B80000F9040E065E088E00E94E52190938F3669
:100B900080938E3640E065E088E00E94E5215C01AC
:100BA0008AE090E00E94C22940918E3650918F36A3
:100BB000D701ED91FC91B501C7010995811110C0D4
:100BC00087E491E09F938F93DF92CF920E94E03071
:100BD00080E090E00E9437270F900F900F900F90C9
:100BE0001F8E8CA190E099A388A320E04FEF5FEFC8
:100BF000BE01615E7F4FC5010E94142281E08F8F8C
:100C000019A218A220E04FEF5FEFBE01615E7F4F97
:100C1000C5010E941422D7011496ED91FC911597FD
:100C2000C7010995D8011896ED91FC911997C80153
:100C300009950E940C038093740254E0852E56E3BC
:100C4000952E62E0762E73E0672EE1E45E2EF8EAE0
:100C50004F2EA4E03A2EB2E52B2E20E04FEF5FEFAF
:100C6000BE01615E7F4F80918E3690918F360E94DB
:100C70001523882391F36F8D653009F4D6C0663053
:100C800019F0623051F7F8C063E081E00E94F61578
:100C900080910C36823008F4C0C030910D363D345E
:100CA00009F486C0E8F43334D9F13C3409F0B5C016
:100CB000709204363093053680910E368093063656
:100CC00090920B3680920A3660920336709202360A
:100CD000D8011896ED91FC911997C80109954EC05D
:100CE000303509F462C0343509F097C090E00896B9
:100CF0000E947D1AFC01508241828091740291E031
:100D0000980F9093740282839DA18EA19383848314
:100D10009FA188A5958386839783808760E04FC0D5
:100D20001F8E80910E3690E099A388A320E04FEFAC
:100D30005FEFBE01615E7F4FC50139A70E9414229B
:100D4000D7011496ED91FC911597C7010995709202
:100D5000043639A53093053688A180930636D8012C
:100D60001896ED91FC911997C801099590920B3650
:100D700080920A366092033670920236D801149639
:100D8000ED91FC911597C801099563E080E00E9400
:100D9000F61520E04FEF5FEF60E070E080918C3659
:100DA00090918D360E94152338C081E08F8F01C04D
:100DB0006F8E80910E3690E099A388A31EC0862F77
:100DC00090E020910C3630E0A90141505109841780
:100DD000950764F4DC01A45FB94C12962C91DF01F5
:100DE000A80FB91F19962C936F5FE9CF3F8E285F2C
:100DF0003F4F39A328A3FBA3EAA320E04FEF5FEF07
:100E0000BE01615E7F4FC5010E941422D701149676
:100E1000ED91FC911597C7010995D8011896ED91B0
:100E2000FC911997C801099518CF70920436B4E562
:100E3000B093053688A18093063690920B36809247
:100E40000A366092033670920236D8011496ED91FC
:100E5000FC911597C801099563E080E00E94F615A2
:100E600020E04FEF5FEF60E070E080918C36909172
:100E70008D360E941523F1CECAA0DBA078A1783070
:100E8000E0F1F60180818134C1F58181883AA9F5CC
:100E90008FA198A5478150E09C0133274217530743
:100EA00061F5208530E0892F99272817390729F522
:100EB00088EF870F87832086C601079690930B36AD
:100EC00080930A3677507093033660930236D801C8
:100ED0001496ED91FC911597C801099563E080E0A7
:100EE0000E94F61520E04FEF5FEF60E070E0809128
:100EF0008C3690918D360E941523C114D10409F4CB
:100F0000ACCEC6010E94381BA8CECF93DF9300D091
:100F100000D01F92CDB7DEB7FA01A90190812091D0
:100F20000736913631F4211104C081E080930736F1
:100F300030C0213041F4913631F01092083682E011
:100F40008093073602C01092073690910836808150
:100F5000E92FF0E0E45FF94C808380910C36981320
:100F600013C086E0898320E0BE016F5F7F4F8091D0
:100F70008E3690918F360E94DF22809108368F5FE7
:100F80008093083680E006C09F3718F49F5F9093E7
:100F90000836862F0F900F900F900F900F90DF91D3
:100FA000CF910895FA01A90190910236923039F457
:100FB00081E68083109202361092093628C0809113
:100FC000093620910336821758F020E060E070E087
:100FD00080918C3690918D360E94DF2280E00895BA
:100FE000A0910A36B0910B36A80FB11D8C91808369
:100FF000813631F4911104C081E080930236089566
:1010000010920236809109368F5F8093093681E015
:101010000895AF92BF92CF92DF92EF92FF920F931B
:10102000A12CB12CC12CD12CE12CF12C03E09C0182
:1010300040E253E06BE272E081E195E00E942E26EF
:101040000F91FF90EF90DF90CF90BF90AF900895F9
:101050002F923F924F925F926F927F928F929F92C8
:10106000AF92BF92CF92DF92EF92FF920F931F93B6
:10107000CF93DF9300D000D01F92CDB7DEB78C01A5
:101080000E946428682F2EE0829FC00111246D8386
:101090000E947D1A7C016D81009709F4BAC0AE01EF
:1010A0004F5F5F4F0E941D2A882E49805A806B80B7
:1010B0007C800E94B41C9B01AC011801C301B201E9
:1010C0000E9492305F934F933F932F9381E292E07F
:1010D0009F938F931F930F930E94E030B8018EEE81
:1010E00091E00E94FD3069817A818B819C810FB6ED
:1010F000F894DEBF0FBECDBF611571058105910566
:1011000059F024E630E040E050E00E94923029831C
:101110003A834B835C8308C081E090E0A0E0B0E0BC
:1011200089839A83AB83BC838701912C981409F43B
:101130006DC0D8011596EC91E150E43028F4F0E050
:10114000EF5CFD4F808101C08FE3F80197811F9212
:101150009F931F928F9383818F9382818F9384813A
:101160001F928F93A1EEB1E0BF93AF933F922F9266
:101170000E94E030D8011896AD90BD90CD90DC90E3
:101180001B970E94B41C9B01AC0149805A806B8064
:101190007C80C601B5010E9492305F934F933F93CC
:1011A0002F93C301B2019695879577956795F801BE
:1011B0002085318542855385620F731F841F951FDB
:1011C000A30192010E9492305F934F933F932F931C
:1011D000D8011D968C911D978F931C968C911C970E
:1011E0008F9316968C911F928F93A1EDB1E0BF93D0
:1011F000AF933F922F920E94E0309394025F1F4F73
:101200000FB6F894DEBF0FBECDBF90CFC7010E94CE
:10121000381B80E00F900F900F900F900F90DF9190
:10122000CF911F910F91FF90EF90DF90CF90BF90E3
:10123000AF909F908F907F906F905F904F903F9076
:101240002F9008950F931F930091BE361091BF36D3
:101250002091C0363091C13646B5040F111D211DB5
:10126000311DA99B06C04091BD3650E060E070E0A2
:1012700003C040E050E0BA01400F511F621F731FCE
:101280007F936F935F934F932EE332E03F932F93BF
:101290009F938F930E94E0308DB79EB708960FB64C
:1012A000F8949EBF0FBE8DBF80E01F910F910895EF
:1012B000EF92FF920F931F93CF93DF93EC010E9465
:1012C000701BF82EE92E0E948C1B182F092F0E94EC
:1012D0006B1BEF92FF920F931F939F938F938AE361
:1012E0008F9388E98F932FE432E03F932F93DF931E
:1012F000CF930E94E0308DB79EB70C960FB6F8944E
:101300009EBF0FBE8DBF80E0DF91CF911F910F91E7
:10131000FF90EF9008950F931F93CF93DF93EC010D
:101320008A8D833019F58E899F890E94AD04162F0E
:10133000888D998D0E94AD04062F812F0E94F6158D
:101340001F920F931F921F938EE992E09F938F93AA
:10135000DF93CF930E94E0308DB79EB708960FB60B
:10136000F8949EBF0FBE8DBF80E001C081E0DF9189
:10137000CF911F910F910895BC018BEA92E00E94DA
:10138000FD3080E008958FE70895EF92FF920F936C
:101390001F93CF93DF931F92CDB7DEB77C01FC0183
:1013A000828D833011F5868997890E94AD048B0167
:1013B000F701808D918D0E94AD041F930F931F92B2
:1013C0006F9320ED32E03F932F93FF92EF9269836A
:1013D0000E94E0306981C8010E9433330FB6F8944F
:1013E000DEBF0FBECDBF80E001C081E00F90DF9176
:1013F000CF911F910F91FF90EF9008950F931F933E
:10140000CF93DF9300D0CDB7DEB78C01FC01828D86
:101410008230F1F4868997890E94AD04CB016983FB
:101420007A830E9425331F928F937A817F936981FB
:101430006F9389EB92E09F938F931F930F930E947A
:10144000E0300FB6F894DEBF0FBECDBF80E001C024
:1014500081E00F900F90DF91CF911F910F91089530
:101460006F927F928F929F92AF92BF92CF92DF92B4
:10147000EF92FF920F931F93CF93DF93CDB7DEB719
:1014800028970FB6F894DEBF0FBECDBF8C01DC01EC
:101490005A968C915A979EEF980F923008F08BC015
:1014A000833031F45896ED91FC915997708002C0C9
:1014B00028E6722E8091903690919136F8016689D7
:1014C0007789DC011296ED91FC91139709957C01C7
:1014D000009709F472C08EEEA82E82E0B82E94EF29
:1014E000892E92E0992ED7015096ED91FC9151975B
:1014F00048E050E0BE016F5F7F4FC70109956C0166
:10150000B3E7612C7B121DC0862D90E08C159D05E4
:1015100008F04BC0E1E0F0E0EC0FFD1FE80FF91F11
:1015200080811F928F939F928F921F930F930E949F
:10153000E03063940F900F900F900F900F900F90EA
:10154000E3CF862D90E08C159D05B8F4E1E0F0E046
:10155000EC0FFD1FE80FF91F80811F928F93BF9240
:10156000AF921F930F930E94E03063940F900F90FF
:101570000F900F900F900F90E4CFE8E0CE16D104BB
:1015800071F0D7015496ED91FC915597C7010995DB
:10159000B8018AEE92E00E94FD3080E00FC0B801F1
:1015A0008CEE92E00E94FD309ECFB8E0CB16D104C5
:1015B00009F499CFE6CF81E001C083E028960FB609
:1015C000F894DEBF0FBECDBFDF91CF911F910F9179
:1015D000FF90EF90DF90CF90BF90AF909F908F9053
:1015E0007F906F900895CF93DF931F92CDB7DEB7B2
:1015F0008983DB011C968D919C911D97DC011496CB
:10160000ED91FC9115972FEF3FEF41E050E0BE01C7
:101610006F5F7F4F099580E090E00F90DF91CF9151
:1016200008954F925F926F927F928F929F92AF92A6
:10163000BF92CF92DF92EF92FF920F931F93CF93BF
:10164000DF93CDB7DEB7A1970FB6F894DEBF0FBE1C
:10165000CDBF7C01009759F4D70152968D919C9192
:101660005397009709F4D1C10E944919CEC1FC01DA
:1016700080899189892B81F340E063E085E00E94B5
:10168000E521D7015D969C938E935C97009721F39B
:101690001E960D911C911F979C0140E450E060E460
:1016A00070E050968D919C9151970E947319F701AB
:1016B000938B828B009781F22EE0E0E0F2E0D7017D
:1016C00001900D922A95E1F7D7011D969C938E9378
:1016D0001C9781E05B968C935E2C4F2CB7018BECB2
:1016E00093E00E94FD303701B8E46B0E711C470196
:1016F000EAE28E0E911CCE0101966C01D7015B9639
:101700008C91882309F4A8CF20E04FEF5FEF60E0D1
:1017100070E0D7011E968D919C911F970E94152312
:1017200020E04FEF5FEF60E070E0F3018081918196
:101730000E9415238701D80194968C919497882351
:10174000C1F120E04FEF5FEF60E070E092968D9185
:101750009C9193970E941523882359F14AE050E009
:10176000BE016B5E7F4FF80180A191A10E94F8033A
:101770005C01D70152968D919C915397DC01149690
:10178000ED91FC9115972FEF3FEFA501BE016B5E28
:101790007F4F0995BAE0AB16B10401F3F80114A22A
:1017A00020E040E050E060E070E082A193A10E9460
:1017B0001422095F1F4F0815190509F0BCCF20E05E
:1017C00040E050E060E070E0D3018D919C910E9478
:1017D000142220E040E050E0BE01615E7F4FF7013F
:1017E000848D958D0E941523882309F487CF8F8DD2
:1017F000882331F0813009F001C1F701138EFEC05A
:1018000048A159A14115510509F4F8C0D7015296D4
:101810008D919C915397DC01ED91FC9144315105E0
:1018200040F060E070E00995652D742D88EB93E041
:10183000C0C0B6010995992787FD909528A139A1C7
:101840008217930709F0D2C0F601E80FF91F108242
:10185000F6019F012C193D092817390748F420810A
:101860003FEB320F3A3110F4206220833196F1CFF2
:10187000F701128E10E0812F992787FD909528A1FE
:1018800039A18217930710F5F701228D2330F4F464
:101890008C0D9D1DF70132E02302E00DF11D112496
:1018A000958B848B60E20E949304810FF601E80F10
:1018B000F11D87FDFA95108211E0180FD7015A9695
:1018C0008C915A978F5F5A968C93D5CF8091903692
:1018D00090919136D70154966D917C915597DC018A
:1018E000ED91FC91A7010995182F87FF37C0A82E0D
:1018F000BB24A7FCB094BF928F93F70185898F9387
:1019000084898F9321EA33E03F932F934F925F9224
:101910000E94E0300FB6F894DEBF0FBECDBF1E3F71
:1019200039F01F3F51F4652D742D84E593E041C0DB
:10193000652D742D84E493E03CC0BF921F9380E436
:1019400093E09F938F934F925F920E94E0300F90AD
:101950000F900F900F900F900F9050C0652D742D29
:1019600082E993E00E94FD301230D1F04CF4112353
:1019700091F0113009F5652D742D86E293E019C0C0
:10198000133099F01F37C1F4652D742D8BEF92E061
:101990000E94FD3027C0652D742D8CE393E009C0B3
:1019A000652D742D83E193E004C0652D742D83E0D3
:1019B00093E00E94FD3022C0212F332727FD309570
:1019C0003F931F9327EF32E03F932F934F925F9205
:1019D0000E94E0300F900F900F900F900F900F909B
:1019E0001F3761F4D7015B961C9208C0652D742DDA
:1019F00088E693E00E94FD300E94E104652D742D7D
:101A000084E693E00E94FD3079CEF701848D958DB8
:101A1000009711F00E942C24E114F10419F0C70181
:101A20000E94381B80E090E00E943727A1960FB6F5
:101A3000F894DEBF0FBECDBFDF91CF911F910F9104
:101A4000FF90EF90DF90CF90BF90AF909F908F90DE
:101A50007F906F905F904F900895AF92BF92CF921A
:101A6000DF92EF92FF920F931F93CF93DF938C013E
:101A70008AE490E00E947D1AEC010097C9F1198B6D
:101A8000088B9F8F8E8F9EA38DA39DA78CA79CAB49
:101A90008BAB9BAF8AAFFC01EF5BFF4F91838083E1
:101AA00043E060E081E00E94E5219F878E8743E06C
:101AB00060E081E00E94E521FE01E85BFF4F918339
:101AC000808320E040E050E060E070E00E9414225B
:101AD000A12CB12CC12CD12CE12CF12C01E09E01C8
:101AE00040E951E065E372E081E19BE00E942E262F
:101AF000CE01DF91CF911F910F91FF90EF90DF907A
:101B0000CF90BF90AF900895009759F0FC01138ECD
:101B100020E040E050E060E070E0868597850C941E
:101B2000142208952EE0EDE3F2E0DC0101900D9225
:101B30002A95E1F7FC01758764870895AF92BF92FB
:101B4000CF92DF92EF92FF920F931F93CF93DF9389
:101B50007C015B01EC01C85BDF4F20E04FEF5FEFE2
:101B600060E070E0888199810E941523F701C12C03
:101B7000D12C80A191A1892BC9F500E010E020E0D3
:101B800030E040E050E060E070E0C5010E943B03BF
:101B900027E02C9D50012D9DB00C112487010A0DCA
:101BA0001B1DF80191A380A3892B49F181E00E94BC
:101BB000AF22F80193A382A3892B79F014A220E02D
:101BC00040E050E060E070E0888199810E9414223A
:101BD000C5014E968E0D9F1D1DC0F80180A191A1DB
:101BE0000E947F03F80111A210A209C08FEFC81A4A
:101BF000D80A379686E0C816D10409F0BACF20E09B
:101C000040E050E060E070E0888199810E941422F9
:101C100080E090E0DF91CF911F910F91FF90EF90C6
:101C2000DF90CF90BF90AF900895CF93DF93EC01FA
:101C3000E881F981E85BFF4F20E04FEF5FEF60E064
:101C400070E0808191810E9415231E828A819B8190
:101C5000009711F00E947F038C819D81009711F005
:101C60000E942C241B821A82E881F981E85BFF4FD5
:101C700020E040E050E060E070E080819181DF9101
:101C8000CF910C941422EF92FF920F931F93CF9356
:101C9000DF93EC018B017A01A90120E060E070E0A4
:101CA0008C819D810E9415238823F1F0A701B80142
:101CB0008A819B810E9490038C0181E08E83E88160
:101CC000F98120E040E050E060E070E08685978593
:101CD0000E94142220E040E050E060E070E08C813F
:101CE0009D810E94142202C000E010E0C801DF9133
:101CF000CF911F910F91FF90EF900895CF93DF93B5
:101D00001F92CDB7DEB78983FB0122E030E041E0CE
:101D100050E0BE016F5F7F4F848595850E94430E22
:101D200080E090E00F90DF91CF9108958FEC93E0E9
:101D30000E94D70F90939136809390360895FC01BE
:101D400072A761A7089580E090E0089581E090E097
:101D500008950F931F93CF93DF938C01EA01FC0149
:101D600081A592A525A136A182179307C8F4480F33
:101D7000591F2417350718F4E901C81BD90BF801BE
:101D800027A130A5AE01820F931F0E94F804F8012D
:101D900081A592A58C0F9D1F92A781A7CE0102C09D
:101DA00080E090E0DF91CF911F910F910895CF9344
:101DB000DF931F92CDB7DEB7198241E050E0BE013C
:101DC0006F5F7F4FFC01848595850E94A90E019766
:101DD00019F4898190E002C08EEF9FEF0F90DF91A0
:101DE000CF910895009711F00C94381B0895FF923D
:101DF0000F931F93CF93DF93EC018B01F12C9E0186
:101E000081E1F89E200D311D1124A901445F5F4F2F
:101E1000662757FD6095762F6BBFFA0147914430D6
:101E200051F0B901C8010E94BA30892B11F48F2DED
:101E300003C0F394E4CF8FEFDF91CF911F910F9107
:101E4000FF900895FF920F931F93CF93DF938C0120
:101E5000FC01848195810E94F70EF82E87FF03C054
:101E600080E090E03FC08BE290E00E947D1AEC01A0
:101E70000097B1F38BE2FE0111928A95E9F71F8B6F
:101E80000E8BF8018481958141E150E0BE01685ECE
:101E90007F4FFF2D21E1F202800D911D11240E9440
:101EA000F8048CA18250823020F482E090E09EA35E
:101EB0008DA38FE99EE09F878E8789EA9EE0998BAC
:101EC000888B83EA9EE09B8B8A8B82EF9EE09D8BC2
:101ED0008C8B8EE0EEE0F2E0DE0101900D928A95AF
:101EE000E1F7CE01DF91CF911F910F91FF900895FF
:101EF0006F927F928F929F92AF92BF92CF92DF921A
:101F0000EF92FF920F931F93CF93DF93CDB7DEB77E
:101F100061970FB6F894DEBF0FBECDBF4B013A01FB
:101F2000FC0104811581C8010E94F70E87FD2AC0BB
:101F300041E150E0BE016F5F7F4F9801E1E18E0209
:101F4000200D311D1124C9010E94F8048D858230B5
:101F500099F08330B1F44E855F85A12CB12CC12C52
:101F6000D12CE12CF12C01E09301B40188899989ED
:101F70000E942E2680E006C0E889F989C3010995F0
:101F800001C08EEF61960FB6F894DEBF0FBECDBFD5
:101F9000DF91CF911F910F91FF90EF90DF90CF9045
:101FA000BF90AF909F908F907F906F900895CF9348
:101FB000DF93EC0186E090E00E947D1AFC0100971F
:101FC00051F088E79FE09183808382E29FE09383D2
:101FD0008283D583C483CF01DF91CF9108950F937E
:101FE0001F93CF93DF9300D0CDB7DEB78C0119825A
:101FF000D8015096ED91FC915197808187FF21C0C7
:10200000818187FF1EC086818A83D8011E96ED914B
:10201000FC911F979E012F5F3F4FAE014E5F5F4FB8
:1020200061E052968D919C91539709958111E0CF73
:10203000D8015096ED91FC91519781818F778183E2
:10204000D7CF89810F900F90DF91CF911F910F9182
:102050000895DC015096ED91FC9151978181806843
:1020600081830895DC015096ED91FC915197818117
:102070008F7781830895DC015096ED91FC91519703
:102080008181806281830895DC015096ED91FC91FD
:10209000519781818F7D81830895FC01A089B18949
:1020A00011968C911197877E11968C93A089B18996
:1020B00011968C9111978F7511968C9315861486B5
:1020C00008950F931F93CF93DF9300D0CDB7DEB762
:1020D0008C011A82D8015096ED91FC915197808124
:1020E00085FF21C0818185FF1EC0D8011C96ED911E
:1020F000FC911D979E012E5F3F4FAE014F5F5F4FDA
:1021000061E052968D919C9153970995D801509614
:10211000ED91FC915197882319F089818683DACF5C
:1021200081818F7D81838A810F900F90DF91CF9184
:102130001F910F910895FC0184859585892BC1F429
:102140007587648757874687338B228BA089B1892F
:1021500088E111968C93A089B18986E012968C93C0
:102160000088F189E02D81818068818381E0089574
:1021700080E00895EF92FF920F931F93CF93DF9328
:1021800000D01F92CDB7DEB78C0184E190E0498387
:102190006A837B830E947D1A7C0149816A817B81ED
:1021A000009709F443C084E1F70111928A95E9F799
:1021B0008BE390E1F7019583848384E490E1978336
:1021C000868389E290E19187808782E390E193871B
:1021D00082878BE990E1918380838DE490E1938302
:1021E0008283118B008BF80175836483413019F46D
:1021F0008081826003C0F80180818D7F8083A70188
:102200006FEE7FE0003C110541F480E00E94131660
:10221000A70161E670E181E007C082E00E94131629
:10222000A70161E670E183E00E941316C7010F90D9
:102230000F900F90DF91CF911F910F91FF90EF9032
:102240000895009711F00C94381B0895ECE4F1E028
:1022500080818F778083808180688083089521E0EA
:10226000FC01278780E00895FC01178680E008952F
:10227000909141019F719F31D9F38093420190E089
:10228000209141012F7130E028173907C9F70895CF
:10229000CF93DF931F92CDB7DEB7209142012295F5
:1022A00026952770FC01208B1982AE014F5F5F4F8E
:1022B00061E070E0818992890E945A2089810F90A3
:1022C000DF91CF910895CF93DF931F92CDB7DEB703
:1022D0001982AE014F5F5F4F62E070E0FC018189BF
:1022E00092890E945A2089810F90DF91CF910895A1
:1022F00064E070E0FC01818992890C948D1F009745
:1023000051F010924E01FC01838994890E94372775
:1023100088E00C9438110895CF93DF93CDB7DEB7E2
:102320002A970FB6F894DEBF0FBECDBF7C01DC014B
:1023300018968D919C911997009761F025E435E0EE
:102340003F932F939F938F930E94E0300F900F90B5
:102350000F900F9045EF242E44E0342E54ED452E7F
:1023600054E0552E0FEF1FEF20E041E066E070E0F3
:10237000F701818992890E94F01ED82E81FF6AC0E0
:10238000D70118968D919C911997009791F0209103
:102390007B011F922F93ABE2B5E0BF93AF939F9366
:1023A0008F930E94E0300F900F900F900F900F903E
:1023B0000F9068E082E00E94F615D7011C968D917F
:1023C0009C911D970E941E24811108C0F7018085F1
:1023D00091850097E9F1A9E1B5E010C080917B01FA
:1023E00090E00E947D1A0097A1F4D70118968D9174
:1023F0009C911997009761F1AAE0B5E0BF93AF9364
:102400009F938F930E94E0300F900F900F900F904A
:102410001FC022E0298320917B0130E03B832A8387
:102420009D838C8340917B0150E060911C027091F0
:102430001D020E94D03020E040E050E0BE016F5FFE
:102440007F4FD7011C968D919C911D970E9414225D
:102450000E942611D2FE86CFF701808591850097D4
:1024600051F03F922F929F938F930E94E0300F90F4
:102470000F900F900F9084EEC82E84E0D82E97EB2B
:10248000A92E94E0B92E2DEB822E24E0922E32EA72
:10249000632E34E0732E20E040E050E0BE016A5F1E
:1024A0007F4FF701828593850E941523813009F0C3
:1024B00059CF8E81813041F138F0833009F442C028
:1024C000843009F46AC0E7CFD70118968D919C91AA
:1024D0001997009781F028852F932F812F93DF92F2
:1024E000CF929F938F930E94E0300F900F900F90A8
:1024F0000F900F900F909F819F7180914801807E77
:10250000892B80934801C7CFF7018085918500977B
:1025100081F028852F932F812F935F924F929F9365
:102520008F930E94E0300F900F900F900F900F90BC
:102530000F909F819F7080914501807F892B8093B0
:102540004501A9CFD70118968D919C9119970097B5
:1025500081F028852F932F812F939F928F929F93A5
:102560008F930E94E0300F900F900F900F900F907C
:102570000F908F810E943811F70180859185009717
:1025800009F489CFBF92AF929F938F930E94E0305E
:102590000F900F900F900F907ECFE0911C02F09162
:1025A0001D028F818E5F808380911C0290911D029D
:1025B00069857A854F81588501960E94D03089853A
:1025C0009A850E94381B68E082E00E94F61582E03E
:1025D000809342010FEF1FEF20E041E061E070E0E7
:1025E000D70151968D919C9152970E94F01EF70150
:1025F00080859185009799F04089242F332727FD06
:1026000030953F934F937F926F929F938F930E9449
:10261000E0300F900F900F900F900F900F90F5E01B
:10262000F983D70150968C915097992787FD909503
:102630009B838A8320E040E050E0BE016F5F7F4FC4
:102640001C968D919C911D970E94142224CFAF92CD
:10265000BF92CF92DF92EF92FF920F93CF93DF93CF
:10266000EC01009749F18C859D85892B29F55D87C3
:102670004C877B876A877E0183E1E80EF11CA12CE1
:10268000B12CC12CD12C02E09E014CEB52E06BE44A
:1026900072E08CE891E10E942E268BE480934E013B
:1026A0008E85882311F086E101C086E00E943811F2
:1026B0000E94261181E001C080E0DF91CF910F914F
:1026C000FF90EF90DF90CF90BF90AF900895EF9282
:1026D000FF920F931F93CF93DF937C018B0185E1D2
:1026E00090E00E947D1AEC01009709F4AAC085E1F0
:1026F000FE0111928A95E9F787E293E19983888335
:102700008FE791E19B838A8388E791E19D838C83A6
:10271000AE0163E671E184E00E941316AE0168E445
:1027200071E185E00E941316AE016FE271E186E06F
:102730000E941316AE0164E371E187E00E94131654
:10274000F80180818E87F986E8860E94DD1E9A8BCB
:10275000898B809165008F7B8093650087EE93E085
:102760000197F1F700C00000809139018D7F8093BF
:10277000390180913901816080933901EFE9FFE0EF
:102780003197F1F700C00000809139018E7F80936E
:102790003901809139018D7F80933901F801808161
:1027A000882309F44EC086818093600187818093DD
:1027B00061018481809362018581809363018091AE
:1027C0006C018E7F80936C0192819770990F80913C
:1027D0006C01817F892B80936C0193819295907F0E
:1027E00080916C018F70892B80936C010E940C0387
:1027F00090936D01877090916E01987F982B9093C4
:102800006E0180916E01877F80936E0180916E01D1
:102810008F7E80936E0180916E018F7D80936E011B
:1028200080916E01806C80936E01F80191819370AC
:102830009295990F907E809148018F79892B809392
:102840004801CE01DF91CF911F910F91FF90EF9042
:102850000895CF93DF93EC0185E190E00E947D1A0B
:102860002097D9F0FC01818992890E944420CE01F1
:102870000E94381B88E00E943811809139018260E3
:102880008093390187EE93E00197F1F700C00000D3
:1028900080916500806480936500DF91CF910895F9
:1028A000813051F018F0823019F0089525E005C00C
:1028B00021E0E5E2F0E003C026E0EBE2F0E081E0B9
:1028C00090E0022E01C0880F0A94EAF7613051F0BF
:1028D00018F0623079F008950FB6F8940F92908155
:1028E000982B0DC00FB6F8940F9290818095892394
:1028F000808306C00FB6F8940F929081982790833A
:102900000F900FBE0895DF92EF92FF920F931F93E7
:10291000CF93DF938C01D62EFC01208D318D2A3B85
:10292000310509F462C098F42E39310509F440C02C
:1029300028F4232B09F041C161E075C02A3A310522
:1029400009F446C02E3A310509F4A5C036C1243E2B
:10295000310509F4E9C080F42E3B310509F49BC030
:102960002C3D310509F029C1E62FF0E0EB56F94C7A
:1029700080818F5F80834EC02E3E310509F4F4C004
:10298000223F310509F019C1E62FF0E0EB56F94C72
:1029900080818F5F808376C08881823009F0AEC0ED
:1029A000188260E08D2D0E9450148881811179C0B9
:1029B000ED2DF0E0EE56F94C808181116CC060E0A5
:1029C00070E082E090E00E94961D8EE990E0EFC0FA
:1029D00062E08D2D0E94501460E070E08EE190E086
:1029E0000E94961D8EEA90E0E2C062E08D2D0E946A
:1029F000501460E070E08EE190E00E94961D8EEB36
:102A000090E0D5C08881853009F085C0F701EB568C
:102A1000F94C10828D2D90E0FC01EE56F94C20818E
:102A2000253029F062E08D2D0E94501434C0FC0145
:102A3000EB56F94C80818430A8F760E070E080E2CA
:102A400090E00E94961D8CED90E0B1C088818730A7
:102A500009F0B1C060E08D2D0E945014F701EB56D3
:102A6000F94C1082CD2DD0E0FE01EE56F94C80815C
:102A7000CB56D94C873009F47FC061E08D2D0E9480
:102A8000501418822D2D30E0F901EE56F94C80815A
:102A9000873009F47DC0ED2CF12CE701CE56D94CDE
:102AA00084CF8881883099F4F701E856F94C808109
:102AB0008883108262E08D2D0E94501460E070E0E7
:102AC00084E690E00E94961D8AEA90E070C08881BA
:102AD000833009F061CFF701E856F94C8081888393
:102AE000108262E08D2D0E94501460E070E084E15D
:102AF00090E00E94961D8AEB90E059C08881813059
:102B000019F4188261E04ECF8881843009F07ACFC1
:102B1000188262E047CF8881863009F097CFF701AD
:102B2000EB56F94C108207C0E62FF0E0EB56F94C5B
:102B300080818F5F80838D2D90E0FC01EE56F94CF3
:102B40002081263009F06ECFFC01EB56F94C8081D4
:102B5000803108F067CF60E070E080E290E00E9492
:102B6000961D84EE90E023C0E62FF0E0EB56F94C82
:102B700080818F5F808376CF888181117ECF60E0F6
:102B800070E080E290E00E94961D8EEE90E00FC013
:102B9000F901EB56F94C8081803108F07CCF60E080
:102BA00070E080E290E00E94961D82EF90E0F801D4
:102BB000918F808F02C01882F8CEDF91CF911F9144
:102BC0000F91FF90EF90DF900895CF9382E084B94A
:102BD00080E68AB9C0E04C2F60E083E894E10E946F
:102BE0002F1DCF5FC330B9F7CF910895833050F4D4
:102BF00090E0FC01EE56F94C2081DC01A856B94C5E
:102C00002C9360830895F894C0E0CE3048F4EC2F04
:102C1000F0E0E35AFA4F84910E94DA04CF5FF5CFD7
:102C2000A895C0E0F4CF883050F494E0899FF0017B
:102C30001124E556F94C71836083538342830895D0
:102C4000883050F494E0899FF0011124E556F94C46
:102C500011821082138212820895CF93C0E08C2FCC
:102C60000E942016CF5FC830D1F7CF9108951F92F0
:102C70000F920FB60F9211240BB60F922F933F9322
:102C80004F935F936F937F938F939F93AF93BF9374
:102C9000EF93FF93E0919B36F0919C3680919D36A7
:102CA00090919E36099581110E945B1CFF91EF91D6
:102CB000BF91AF919F918F917F916F915F914F9154
:102CC0003F912F910F900BBE0F900FBE0F901F9052
:102CD00018951F920F920FB60F9211240BB60F92F8
:102CE0002F933F934F935F936F937F938F939F9314
:102CF000AF93BF93EF93FF93E0919F36F091A0368F
:102D00008091A1369091A236099581110E945B1C99
:102D1000FF91EF91BF91AF919F918F917F916F91B3
:102D20005F914F913F912F910F900BBE0F900FBE6F
:102D30000F901F9018951F920F920FB60F921124AB
:102D40000BB60F922F933F934F935F936F937F93A5
:102D50008F939F93AF93BF93EF93FF93E091A3362D
:102D6000F091A4368091A5369091A63609958111EF
:102D70000E945B1CFF91EF91BF91AF919F918F914A
:102D80007F916F915F914F913F912F910F900BBE6B
:102D90000F900FBE0F901F9018951F920F920FB6B5
:102DA0000F9211240BB60F922F933F934F935F9383
:102DB0006F937F938F939F93AF93BF93EF93FF9303
:102DC000E091A736F091A8368091A9369091AA3665
:102DD000099581110E945B1CFF91EF91BF91AF910A
:102DE0009F918F917F916F915F914F913F912F9123
:102DF0000F900BBE0F900FBE0F901F9018951F9253
:102E00000F920FB60F9211240BB60F922F933F9390
:102E10004F935F936F937F938F939F93AF93BF93E2
:102E2000EF93FF93E091AB36F091AC368091AD36E5
:102E30009091AE36099581110E945B1CFF91EF9134
:102E4000BF91AF919F918F917F916F915F914F91C2
:102E50003F912F910F900BBE0F900FBE0F901F90C0
:102E600018951F920F920FB60F9211240BB60F9266
:102E70002F933F934F935F936F937F938F939F9382
:102E8000AF93BF93EF93FF93E091AF36F091B036DD
:102E90008091B1369091B236099581110E945B1CE8
:102EA000FF91EF91BF91AF919F918F917F916F9122
:102EB0005F914F913F912F910F900BBE0F900FBEDE
:102EC0000F901F9018951F920F920FB60F9211241A
:102ED0000BB60F922F933F934F935F936F937F9314
:102EE0008F939F93AF93BF93EF93FF93E091B3368C
:102EF000F091B4368091B5369091B636099581112E
:102F00000E945B1CFF91EF91BF91AF919F918F91B8
:102F10007F916F915F914F913F912F910F900BBED9
:102F20000F900FBE0F901F9018951F920F920FB623
:102F30000F9211240BB60F922F933F934F935F93F1
:102F40006F937F938F939F93AF93BF93EF93FF9371
:102F5000E091B736F091B8368091B9369091BA3693
:102F6000099581110E945B1CFF91EF91BF91AF9178
:102F70009F918F917F916F915F914F913F912F9191
:102F80000F900BBE0F900FBE0F901F9018951F92C1
:102F90000F920FB60F9211240BB60F922F933F93FF
:102FA0004F935F936F937F938F939F93AF93BF9351
:102FB000EF93FF9380E090E00E940316FF91EF9162
:102FC000BF91AF919F918F917F916F915F914F9141
:102FD0003F912F910F900BBE0F900FBE0F901F903F
:102FE00018950F931F93CF93DF93EC01CA018901CA
:102FF000F90120812E8B462F50E0BC018E819F81EC
:103000000E94F8039E89F8019083DF91CF911F9170
:103010000F910895EF92FF920F931F93CF93DF9339
:1030200000D000D0CDB7DEB77C01DC0153968D9186
:103030009C915497DC011A96ED91FC911B974B8360
:103040005C8369837A8309954B815C8169817A818C
:10305000F701808591850E94F8038C01D701539672
:103060008D919C915497DC011896ED91FC911997E4
:103070000995C8010F900F900F900F90DF91CF919D
:103080001F910F91FF90EF9008956F927F928F9212
:103090009F92AF92BF92CF92DF92EF92FF920F93E7
:1030A0001F93CF93DF9300D01F92CDB7DEB78C0173
:1030B000762E690163E081E04A835B830E94F61506
:1030C0004A81642EE42E5B81F52E58018AE0A80E19
:1030D000B11C8E2D86198715F0F5F70181917F01BE
:1030E00089838D3011F08A3009F520E0A601B50101
:1030F000F801858596850E94DF22813051F420E019
:10310000A60160E070E0F801878590890E94DF22C7
:1031100009C0F8014385548560E070E080859185A1
:103120000E94F803F80114861386D3CF80528F359E
:1031300080F6F8018384948441E050E0BE016F5F23
:103140007F4F808591850E949003880D991DF8011D
:1031500094878387BECF872D0F900F900F90DF91BC
:10316000CF911F910F91FF90EF90DF90CF90BF9084
:10317000AF909F908F907F906F900895EF92FF9205
:103180000F931F93CF93DF9300D000D0CDB7DEB75E
:103190007C01DC0153968D919C915497DC0116962D
:1031A000ED91FC9117974B835C8369837A83099532
:1031B0004B815C8169817A81F701868197810E94C8
:1031C00090038C01D70153968D919C915497DC010B
:1031D0001496ED91FC911597099563E080E00E94AB
:1031E000F615C8010F900F900F900F90DF91CF91BF
:1031F0001F910F91FF90EF9008958F929F92AF9241
:10320000BF92CF92DF92EF92FF920F931F93CF93D3
:10321000DF936C015B017A014901C0E0D0E0CE157B
:10322000DF05C0F4840120E040E061E070E0F601D9
:10323000818992890E94F01E80FF0CC0A7014C1B5F
:103240005D0BB5016C0F7D1FC6010E94BE18C80F33
:10325000D91FE5CFCE01DF91CF911F910F91FF9044
:10326000EF90DF90CF90BF90AF909F908F90089598
:10327000AC014A5E5F4F61E070E0FC018189928998
:103280000C945A2061E070E0FC01818992890C94D1
:10329000681FCF93DF93EC01009711F18D89813086
:1032A00041F48B899C89DC011296ED91FC91139776
:1032B00009958E819F81009711F00E947F03888578
:1032C0009985009711F00E947F0389899A89009758
:1032D00011F00E944420CE01DF91CF910C94381B55
:1032E000DF91CF9108956F927F928F929F92AF92CC
:1032F000BF92CF92DF92EF92FF920F931F93CF93E3
:10330000DF937C016B015A0149013801009709F4F0
:1033100062C087E190E00E947D1AEC01009709F4F9
:103320005AC087E1DE011D928A95E9F7B8E1CB1614
:10333000D10420F086010851110902C000E010E01C
:103340009E0148E359E162E479E1C6010E943B0332
:103350009F838E83892BE1F1850120E030E040E0FE
:1033600050E060E070E0C5010E943B0399878887C8
:10337000892B71F10E94DD1E9A8B898B009741F198
:1033800061E070E00E948D1F9E868D86788A6F8630
:103390001A868AE098E1998388838EEB98E19B8373
:1033A0008A838DEF98E19D838C83FC8AEB8A1D8A4A
:1033B000D701ED91FC919E0145E458E161EF77E181
:1033C000C7010995882321F081E08D8BCE0105C0CE
:1033D000CE010E94491980E090E0DF91CF911F91CA
:1033E0000F91FF90EF90DF90CF90BF90AF909F90A4
:1033F0008F907F906F900895F8940E942D160E94F0
:10340000960E0E94D7020E94E51541E062E270E04C
:1034100088EC90E00E94BA100E942D0D9093BC366B
:103420008093BB362CE088E190E00FB6F894A89525
:10343000809360000FBE2093600083B7817F83BFBD
:1034400040E061E070E080EC90E00E94BA100E94E1
:1034500009080E940C2880E090E00895A8950E9439
:10346000D81D83B7816083BF889583B78E7F83BF64
:103470000895CF93DF93FC01ADE7B2E0CD91DC91ED
:103480001197CE17DF0710F4DE01F8CF12962D91B9
:103490003C911397CD01820F931F8E179F0749F41C
:1034A00082819381820F931F13969C938E93129720
:1034B000FD0122813381CF01820F931F8C179D075D
:1034C00091F480917B0290917C02C817D90759F042
:1034D0008A819B81820F931F938382838881998144
:1034E0009183808302C0D183C083AE17BF0711F0E0
:1034F000ED93FC93DF91CF910895CF92DF92EF92FD
:10350000FF920F931F93CF93DF93EC010E944F28FC
:1035100080917B0290917C02892BA1F541E852E0D9
:1035200050937E0240937D021092800210927F029F
:10353000662757FD6095762F4C535D4C6F4F7F4F3C
:10354000FA0150937C0240937B0213821282118213
:103550001082CA0181589240909384028093830222
:103560005093820240938102909378028093770275
:1035700090937A028093790280E090E890937602AB
:1035800080937502E0907502F0907602CE018E2154
:103590009F21892B09F05EC0209709F45BC09E0132
:1035A0002C5F3F4F2115310509F454C0C0907902BA
:1035B000D0907A02C216D30608F44CC0C0917D02A6
:1035C000D0917E02EDE7F2E04A815B81421753071A
:1035D00040F080917B0290917C02C817D90741F49A
:1035E00039C0888199810097A1F3FE01EC01ECCFED
:1035F000008111810C5F1F4F8881998191838083A5
:10360000421B530B4930510550F0CE01820F931FDE
:10361000FC01538342833B832A830E94391A2A8107
:103620003B81C601821B930B90937A0280937902AF
:1036300040917702509178028417950720F4909377
:10364000780280937702E22AF32AFB82EA821982C7
:10365000188202C000E010E00E941729C801DF9123
:10366000CF911F910F91FF90EF90DF90CF90089531
:10367000CF93DF93009761F1EC0124972A813B817E
:103680008091750290917602AC0142235323452B21
:10369000F9F048815981452BD9F480959095822382
:1036A00093239B838A830E944F2880917902909173
:1036B0007A022A813B81820F931F90937A02809332
:1036C0007902CE010E94391ADF91CF910C9417290B
:1036D000DF91CF9108958091790290917A020895B7
:1036E000CF93DF930E944F28E0917D02F0917E02FC
:1036F000C0E0D0E080819181009741F02281338148
:10370000C217D30708F4E901FC01F4CF0E9417297E
:10371000CE01DF91CF910895809177029091780248
:103720000895089531E1FC013083319722E220832E
:10373000FC013297A3E3A083FC0133976083FC0173
:1037400034977083FC0135971082FC01369760E84E
:103750006083FC0137971082FC01389762E0608338
:10376000FC01399763E06083FC013A9764E0608371
:10377000FC013B9765E06083FC013C9766E0608359
:10378000FC013D9767E06083FC013E9768E0608341
:10379000FC013F9769E06083FC01709760E1608302
:1037A000FC0171973083FC01729732E13083FC0198
:1037B000739733E13083FC01749734E13083FC016B
:1037C000759735E13083FC01769736E13083FC0153
:1037D000779737E13083FC01789738E13083FC013B
:1037E000799739E13083FC017A9730E23083FC012C
:1037F0007B9731E23083FC017C972083FC017D972D
:1038000023E22083FC017E974083FC017F97508355
:10381000FC01B09726E22083FC01B19727E22083C8
:10382000FC01B29728E22083FC01B39729E22083B0
:10383000FC01B49720E32083FC01B59721E32083AA
:10384000869708958AEF8093BD3689EF87BD82E021
:1038500084BD93E095BD80936E00A091E235B09158
:10386000E335CD91CDBFDD91DEBFFF91EF91DF91CB
:10387000CF91BF91AF919F918F917F916F915F9108
:103880004F913F912F911F910F91FF90EF90DF90FB
:10389000CF90BF90AF909F908F907F906F905F90F0
:1038A0004F903F902F901F900F900FBE0F90089554
:1038B00081E0089508950F920FB6F8940F921F9229
:1038C00011242F923F924F925F926F927F928F922C
:1038D0009F92AF92BF92CF92DF92EF92FF920F939F
:1038E0001F932F933F934F935F936F937F938F9388
:1038F0009F93AF93BF93CF93DF93EF93FF93A091E9
:10390000E235B091E3350DB60D920EB60D920E94E0
:10391000B82AA091E235B091E335CD91CDBFDD91CC
:10392000DEBFFF91EF91DF91CF91BF91AF919F915A
:103930008F917F916F915F914F913F912F911F9147
:103940000F91FF90EF90DF90CF90BF90AF909F903E
:103950008F907F906F905F904F903F902F901F902F
:103960000F900FBE0F9008956091BD3670E080E01B
:1039700090E008950F920FB6F8940F921F921124C1
:103980002F923F924F925F926F927F928F929F926F
:10399000AF92BF92CF92DF92EF92FF920F931F935D
:1039A0002F933F934F935F936F937F938F939F9347
:1039B000AF93BF93CF93DF93EF93FF93A091E23543
:1039C000B091E3350DB60D920EB60D928091BE36D4
:1039D0009091BF36A091C036B091C1362091BD36CE
:1039E000820F911DA11DB11D8093BE369093BF36ED
:1039F000A093C036B093C1360E94672881110E94FF
:103A0000B82AA091E235B091E335CD91CDBFDD91DB
:103A1000DEBFFF91EF91DF91CF91BF91AF919F9169
:103A20008F917F916F915F914F913F912F911F9156
:103A30000F91FF90EF90DF90CF90BF90AF909F904D
:103A40008F907F906F905F904F903F902F901F903E
:103A50000F900FBE0F9008950E94BA1C1895EF9218
:103A6000FF920F931F93CF93DF937C01142F8AE172
:103A700090E00E947D1AEC01009709F44FC08091FC
:103A8000503590915135892B01F5D0935135C09324
:103A9000503581E795E30E946F2088E695E30E9408
:103AA0006F208FE595E30E946F2082E595E30E94E9
:103AB0006F2088E695E390935E3580935D358FE5C2
:103AC00095E390935C3580935B35198E188E1E8A32
:103AD0001F8BFE01E192F1928F01CF010E947D20A8
:103AE000CE010C960E947D20D987C887DB8BCA8BBC
:103AF00081E090E09D878C878E8990914F35981753
:103B000010F480934F35F9E08F9FC0011124B80164
:103B10008F589A4C0E94812081E001C08FEFDF9185
:103B2000CF911F910F91FF90EF9008950F931F93E6
:103B3000CF93DF938B01C0914D35D0914E35C80F97
:103B4000D91F809150359091513502960E94DA200C
:103B5000E0915035F0915135D383C28380914D353A
:103B600090914E35BF016E5F7F4FC817D90728F47B
:103B700080915B3590915C3504C080915D3590916A
:103B80005E350E94A2200115110569F06091503543
:103B900070915135645F7F4FC801DF91CF911F91C4
:103BA0000F910C94A220DF91CF911F910F91089556
:103BB000FF920F931F93CF93DF9399E0F92E80919B
:103BC0005235882311F1F894E0915735F09158352A
:103BD000C681D781CE010C960E94DA2078948E019E
:103BE0000E5F1F4FC8010E94DA208E8990914F35D9
:103BF000981710F480934F35F89EC0011124B80136
:103C00008F589A4C0E948120DACF0E94552820912B
:103C10004B3530914C35821B930B90934A358093F2
:103C2000493589E0F82E2091493530914A35809107
:103C30004D3590914E352115310509F454C001964A
:103C400090934E3580934D352150310930934A354C
:103C500020934935892B09F03EC080915D359091C4
:103C60005E3520915B3530915C3530935E35209325
:103C70005D3590935C3580935B352DC00580F68172
:103C8000E02DC681D78120914D3530914E358A8106
:103C90009B812817390738F2F8948E010E5F1F4F69
:103CA000C8010E94DA208C899D89892B21F0CE01E0
:103CB0000C960E94DA2078948E8990914F3598174F
:103CC00010F480934F35F89EC0011124B8018F582D
:103CD0009A4C0E948120E0915D35F0915E358081A3
:103CE0008111CCCFA0CF90934C3580934B358091F0
:103CF0004F3529E0289FF0011124EF58FA4C9081AC
:103D000091110CC0811108C010924F35DF91CF91F5
:103D10001F910F91FF9008958150ECCF80934F3504
:103D2000A181B28112960D90BC91A02DB283A18386
:103D3000CF010396A817B90731F412968D919C9183
:103D40001397928381830180F281E02D8681978190
:103D50009093513580935035DC01ED91FC91119792
:103D600057966C91DF91CF911F910F91FF9009941D
:103D70000F931F93CF93DF93DC011596ED91FC9188
:103D80001697C681D7818E01045F1F4FC8010E941C
:103D9000DA20B80182E595E30E948120E091503558
:103DA000F091513581E02E899689291708F480E039
:103DB000DF91CF911F910F910895CF93DF938CE006
:103DC00090E00E947D1AEC01009731F0FC01119205
:103DD0001192CF010E946F20CE01DF91CF91089503
:103DE000AF92BF92CF92DF92EF92FF920F931F9309
:103DF000CF93DF937C01EB01B42EA22E0E944F28BB
:103E0000F701C080D180CE018C219D21A11003C07B
:103E1000892B21F43BC08C179D07C1F5BB2041F0D5
:103E2000CE01809590958C219D21F701918380830F
:103E300000E010E00E941729012B09F43DC0811118
:103E400002C00E945B1C0E94AE2D91FD1CC00FB6EB
:103E5000F8940F92F701808191819E0128233923E4
:103E6000A11003C0232B21F40CC02C173D0749F4EB
:103E7000BB2039F0C095D095C823D923F701D18351
:103E8000C0830F900FBE6C01DD2416C00115110513
:103E900089F2B11003C060E070E002C060E071E040
:103EA000A11074606C2B7D2BA801C70102960E94A3
:103EB000FC2BC12CD12CBECFC601DF91CF911F911D
:103EC0000F91FF90EF90DF90CF90BF90AF9008954B
:103ED000FC010FB6F8940F928081918160957095E6
:103EE00068237923718360830F900FBE0895BA0110
:103EF0000C94681F0F931F939B0140E050E000E07B
:103F000010E0BC0187E79FE10E943A301F910F91BA
:103F10000895FC01808191810895CF92DF92EF9204
:103F2000FF920F931F93CF93DF93EC018B017C01E2
:103F300085E0E80EF11C0E944F28EF81F88588810A
:103F40009981802B912B9983888300E010E0688110
:103F50007981EE15FF05E1F0D280C38020813181A7
:103F6000C9019927AC014623572332FD03C0452BD5
:103F700021F40BC04817590741F430FF02C0082B49
:103F8000192B7260CF010E948C2CED2DFC2DDFCF00
:103F90000095109506231723198308830E9417297B
:103FA00088819981DF91CF911F910F91FF90EF90C0
:103FB000DF90CF900895AF92BF92CF92DF92EF92B1
:103FC000FF920F931F93CF93DF93EC015B018A0164
:103FD00069010E944F28E880F980B501CE010E9456
:103FE0008D1FEA28FB28C7018023912380179107A2
:103FF00061F48881998198012095309582239323DB
:1040000099838883C12CD12C0FC0C114D10451F0E5
:10401000A601B8017560CE0102960E94FC2BE12C2E
:10402000F12C02C0E880F9800E941729CD28E9F020
:10403000811102C00E945B1C0E94AE2D91FD13C035
:104040000FB6F8940F92888199819801282339231B
:104050002017310731F4009510950823192319838F
:1040600008830F900FBE7C01FF24C701DF91CF9121
:104070001F910F91FF90EF90DF90CF90BF90AF9086
:104080000895BA010C948D1FCF93DF93EC010E9429
:104090004F288A81882339F060E072E08F8198850B
:1040A0000E948C2CF6CFCE010E94381BDF91CF915D
:1040B0000C9417290F931F938A019B0140E050E055
:1040C000BC0181E490E20E943A301F910F91089563
:1040D000009719F0FC018385089580E00895FC01A4
:1040E0000396928381832FEF3FEF3483238396835C
:1040F00085839087878310820895FC01118610863E
:104100000895CF93DF939C01FB01DC011196CD91C3
:10411000DC911297D383C2838C819D8195838483A4
:104120008C819D81DC0113967C936E9312977D8325
:104130006C8331872087F90180818F5F8083DF91D5
:10414000CF9108950F931F93CF93DF938C01FB01C1
:10415000208131812F3F8FEF380721F4E801AF81B3
:10416000B8850EC0D801139612968D919C91139725
:10417000EC01488159812417350710F0DC01F4CF98
:1041800012968D919C91139793838283EC01FD830A
:10419000EC83B583A4831396FC93EE931297118757
:1041A0000087F80180818F5F8083DF91CF911F911D
:1041B0000F910895CF93DF93FC01A085B185828193
:1041C000938124813581EC013D832C83C481D58189
:1041D0009B838A8311968D919C9112978E179F07CE
:1041E00021F41296DC93CE931197118610868C9150
:1041F00081508C93DF91CF9108951F93CF93DF93DC
:10420000EC01142F4C8D41110CC088819981892BB0
:1042100009F041C08A819B810E94752D1B821A8200
:104220003BC050E0111115C08C819D810E94D0309F
:104230002C8D8C819D81820F911D9D838C832A8181
:104240003B818217930738F1888199819D838C8304
:1042500022C08E819F810E94D0302C8D30E031951C
:10426000219531098E819F81820F931F9F838E83B9
:10427000688179818617970730F48A819B81820F44
:10428000931F9F838E83123031F48A8D882319F017
:104290008A8D81508A8F80E09A8D9F5F9A8FDF91FF
:1042A000CF911F910895FC01CB01448D4423A1F0CF
:1042B00050E026813781240F351F378326836281A2
:1042C00073812617370720F02081318137832683B9
:1042D000668177810C94D03008950F931F93CF930C
:1042E000DF93EC010FB6F8940F928C010F5E1F4F15
:1042F0008E8D18166CF48989882351F0C8010E94AC
:104300004B2C81110E94FD2C8E8D81508E8FF0CF11
:104310008FEF8E8F0F900FBE0FB6F8940F928E0115
:10432000085F1F4F8D8D18166CF48885882351F017
:10433000C8010E944B2C81110E94FD2C8D8D815053
:104340008D8FF0CF8FEF8D8F0F900FBEDF91CF91BC
:104350001F910F910895CF93DF93EC010FB6F8945E
:104360000F92288139818B8D7C8D879FC00111240C
:10437000A901480F591F5B834A831A8E3D832C8302
:10438000871B9109820F931F9F838E838FEF8D8FE1
:104390008E8F61110CC08885882389F0CE01089624
:1043A0000E944B2C813059F40E945B1C08C0CE0146
:1043B00008960E946F20CE0141960E946F200F90B8
:1043C0000FBE81E0DF91CF910895FF920F931F936D
:1043D000CF93DF93182F062FF42E8823E1F081E28C
:1043E00090E00E947D1AEC010097A9F0109FC00197
:1043F000112401960E947D1A99838883892B41F0AC
:104400001B8F0C8F61E0CE010E94AB21F8A205C08A
:10441000CE010E94381BC0E0D0E0CE01DF91CF91E9
:104420001F910F91FF900895BF92CF92DF92EF926C
:10443000FF920F931F93CF93DF9300D000D01F9272
:10444000CDB7DEB78C016B015D834C83B22E20E0CB
:104450007C0188E0E80EF11C0FB6F8940F92F80189
:10446000928D838D981718F0F2E0BF1218C04B2D73
:10447000B601C8010E94FD20F8019189992349F0F5
:10448000C80141960E944B2C813029F40E945B1C8C
:1044900002C08111FBCF0F900FBE81E051C08C8113
:1044A0009D81892B19F40F900FBE49C0211104C0C2
:1044B000CE0101960E94C02C0F900FBE0E944F2883
:1044C0000FB6F8940F92F801858D8F3F09F4158E81
:1044D000F801868D8F3F09F4168E0F900FBEBE0136
:1044E0006C5F7F4FCE0101960E94CB2C811122C0C0
:1044F0000FB6F8940F92F801928D0F900FBEF8014D
:10450000838D981311C06C817D81C7010E94D02BCF
:10451000C8010E946D210E941729882311F021E013
:104520009BCF0E945B1CFBCFC8010E946D210E94A3
:104530001729F5CFC8010E946D210E94172980E03C
:104540000F900F900F900F900F90DF91CF911F91D0
:104550000F91FF90EF90DF90CF90BF9008951F9341
:10456000CF93DF93182F81E290E00E947D1AEC0137
:10457000009701F11B821A82198218821D821C8207
:104580001F821E821A8E81E08B8F1C8E9FEF9D8F63
:104590009E8F18A3CE0108960E946F20CE014196EF
:1045A0000E946F2020E040E050E060E070E0CE012B
:1045B0000E941422CE01DF91CF911F9108950F9395
:1045C0001F93CF93DF93EC018A019A8D8B8D9817FF
:1045D00010F0223021F5422FCE010E94FD208823C9
:1045E00031F00115110519F081E0F80180838E8DFD
:1045F0008F3F81F48989882381F0CE0141960E9402
:104600004B2C882351F00115110539F081E0F80198
:10461000808306C08E8D8F5F8E8F81E001C080E029
:10462000DF91CF911F910F910895BF92CF92DF92AA
:10463000EF92FF920F931F93CF93DF9300D000D0A0
:104640001F92CDB7DEB78C016B015D834C83B22E18
:1046500030E07C0181E1E80EF11C0FB6F8940F9276
:10466000F801828D882389F1E680F780B601C801C0
:104670000E945321F801B11019C0828D8150828FA0
:1046800080819181892B29F40E94C52DF8019383A3
:104690008283F80180858823A1F0C80108960E94D2
:1046A0004B2C813071F40E945B1C0BC0F782E682B8
:1046B0008189882331F0C80141960E944B2C8111D9
:1046C000F2CF0F900FBE81E05EC08C819D81892B5F
:1046D00019F40F900FBE56C0311104C0CE010196DF
:1046E0000E94C02C0F900FBE0E944F280FB6F89466
:1046F0000F92F801858D8F3F09F4158EF801868D94
:104700008F3F09F4168E0F900FBEBE016C5F7F4F76
:10471000CE0101960E94CB2C81112FC00FB6F894C8
:104720000F92F801828D0F900FBE811120C0F80109
:1047300080819181892B51F40FB6F8940F92F80182
:10474000828193810E94202D0F900FBE6C817D810C
:10475000C7010E94D02BC8010E946D210E94172919
:10476000882311F031E079CF0E945B1CFBCFC80198
:104770000E946D210E941729F5CFC8010E946D216A
:104780000E94172980E00F900F900F900F900F90CC
:10479000DF91CF911F910F91FF90EF90DF90CF901D
:1047A000BF9008950F931F93CF93DF93EC018A017D
:1047B0008A8D8823F1F0CE010E9453218A8D815089
:1047C0008A8F8D8D8F3F81F48885882381F0CE017B
:1047D00008960E944B2C882351F00115110539F0E1
:1047E00081E0F801808306C08D8D8F5F8D8F81E021
:1047F00001C080E0DF91CF911F910F9108950F9339
:104800001F93CF93DF93EC018A8D882349F00E81AB
:104810001F81CE010E9453211F830E8381E001C0BE
:1048200080E0DF91CF911F910F9108950FB6F8941A
:104830000F92FC01828D0F900FBE08950FB6F89471
:104840000F92FC01228D0F900FBEFC01838D821B05
:104850000895FC01828D0895CF93DF93EC01888148
:104860009981009711F00E94381BCE01DF91CF9102
:104870000C94381BFC01878D0895FC01678F089507
:10488000FC0180A10895FC01928D81E0911180E0EE
:104890000895FC01228D81E0938D291380E0089515
:1048A000CF93DF93EC01CA01F8940FB6F8940F92FE
:1048B0003A8D2B8D0F900FBE32130DC0009741F033
:1048C000BE01685F7F4F0E94961D78948CEF1BC0DD
:1048D000789480E018C07894F8948A8D821788F4D0
:1048E00040E0CE010E94FD208989811102C081E053
:1048F00009C0CE0141960E94B81E8823C1F38BEFF8
:1049000001C080E07894DF91CF910895CF93DF9339
:10491000EC01CB01F8942A8D21110FC041155105EE
:1049200049F0BE016F5E7F4FCA010E94961D7894C8
:104930008CEF2FC0789480E02CC07894F8942A8D66
:10494000222329F14C8D50E02E813F81240F351F09
:104950003F832E836A817B812617370720F02881C9
:1049600039813F832E832A8D21502A8F6E817F814A
:104970000E94D0308885811102C081E009C0CE013B
:1049800008960E94B81E8823C1F38BEF01C080E017
:104990007894DF91CF9108951F93CF93DF93EC012B
:1049A000142F9A8D8B8D981710F0412F11C040E075
:1049B000CE010E94FD201111F8CF8989882339F09A
:1049C000CE0141960E94B81E41E0811101C040E035
:1049D000842FDF91CF911F9108950F931F93CF9351
:1049E000DF93EC01CB018A012A8D222359F14C8DF2
:1049F00050E02E813F81240F351F3F832E836A8133
:104A00007B812617370720F0288139813F832E8349
:104A10002A8D21502A8F6E817F810E94D030F8012B
:104A20008081882311F081E00EC088858823D9F326
:104A3000CE0108960E94B81E8823A9F381E0F801F0
:104A4000808301C080E0DF91CF911F910F91089585
:104A5000CF93DF93EC010FB6F8940F928D8D8F3FBB
:104A600009F41D8E8E8D8F3F09F41E8E0F900FBEA0
:104A70008A8D811104C0CE0141960E942F2CCE0157
:104A8000DF91CF910C946D218F929F92AF92BF9244
:104A9000CF92DF92EF92FF920F931F93CF93DF930A
:104AA000FB012081222309F47BC0A181B2811296EF
:104AB0002D913C911397328321836D5F7F4F261791
:104AC000370739F4DB0112962D913C91139732830D
:104AD0002183A181B2811696ED90FC90179750E04A
:104AE00022E0B22EA181B28112962D913C911397B2
:104AF000328321832617370721F4258136813283BB
:104B00002183A181B28116968D909C901797EC011C
:104B1000BEE05B9FC00DD11D112499828882940153
:104B2000275E3F4F3B832A83D40191962C91919726
:104B30002C834D8356962C9156972E83433039F40F
:104B400054962D913C915597232B09F0BD82D401A9
:104B500093962C9193972F8395960D911D912D915E
:104B60003C919897088719872A873B875796CD905D
:104B7000DC90589700E010E09801D601AD906D01EF
:104B8000B5EAAB1205C00F5F1F4F2F4F3F4FF5CF58
:104B90001D870C875F5F8E149F0409F0A3CF01C0AF
:104BA00050E0852FDF91CF911F910F91FF90EF90F3
:104BB000DF90CF90BF90AF909F908F900895E0913D
:104BC000AA35F091AB358081811103C08FEF9FEF43
:104BD0000CC0E091AA35F091AB350580F681E02D4F
:104BE0000680F781E02D8281938190931F0280934C
:104BF0001E020895CF93DF93EC01E091E235F0912E
:104C0000E335938382838091893590918A356091D1
:104C1000E2357091E335C817D90750F48091A83573
:104C20009091A9356E5F7F4FDF91CF910C94A220B8
:104C30008091AA359091AB356E5F7F4F0E94A22084
:104C400080911E0290911F02C817D90720F4D093BB
:104C50001F02C0931E02DF91CF9108955F926F9261
:104C60007F928F929F92AF92BF92CF92DF92EF92FC
:104C7000FF920F931F93CF93DF934C01162F572E64
:104C80005A01390189E290E00E947D1AEC010097F7
:104C900009F4DCC0C114D10421F4C5010E947D1ABD
:104CA00001C0C601988F8F8B009721F4CE010E941E
:104CB000381BCCC0A50165EA70E00E94D93021E024
:104CC000A21AB108CF88D88CCA0CDB1CE12FF52DB5
:104CD00080E090E0BF0141919E01280F391FD9016A
:104CE00059964C93DB012C91222321F001968830B8
:104CF000910581F718A2102F043008F013E01E8BE5
:104D00001BA31CA25E01B2E0AB0EB11CC5010E9448
:104D10007D20CE010C960E947D20D987C88784E033
:104D200090E0811B91099D878C87DB8BCA8B1DA22C
:104D30001EA21FA218A6A301B401C6010E94921BC5
:104D400099838883E114F10419F0F701D183C083BA
:104D50000FB6F8940F9280918B358F5F80938B35CF
:104D60008091E2359091E335892BD1F5D093E335ED
:104D7000C093E23580918B35813009F040C08EEBD5
:104D800095E30E946F2087EC95E30E946F2080EDF1
:104D900095E30E946F2089ED95E30E946F2085EBDB
:104DA00095E30E946F208CEA95E30E946F208FE9C3
:104DB00095E30E946F2086E995E30E946F208CE8BE
:104DC00095E30E946F2085EB95E39093AB3580933C
:104DD000AA358CEA95E39093A9358093A8350FC046
:104DE0008091873581110BC0E091E235F091E33578
:104DF0008689081720F0D093E335C093E23580917F
:104E000083358F5F8093833589A38E899091883510
:104E1000981710F480938835F9E08F9FC001112412
:104E2000B50182549A4C0E9481200F900FBE809150
:104E30008735882349F0E091E235F091E3358689A2
:104E4000801710F40E945B1C81E001C08FEFDF919E
:104E5000CF911F910F91FF90EF90DF90CF90BF9077
:104E6000AF909F908F907F906F905F9008950F9379
:104E70001F93CF93DF93EC010FB6F8940F92009736
:104E800021F4C091E235D091E3358E010E5F1F4FC2
:104E9000C8010E94DA208C899D89892B21F0CE01DE
:104EA0000C960E94DA20B80186E995E30E948120E1
:104EB000809195358F5F80939535809183358F5F95
:104EC000809383350F900FBE80918735882389F0BA
:104ED0008091E2359091E335C817D90719F40E9403
:104EE0005B1C07C00FB6F8940F920E94DF250F904D
:104EF0000FBEDF91CF911F910F9108950F931F93D4
:104F0000CF93DF93EC01009709F439C08091E2352B
:104F10009091E335C817D90791F10FB6F8940F9225
:104F20008A859B858C58954341F58C899D8925E31D
:104F30008F39920711F1892B01F58E010E5F1F4FFA
:104F4000C8010E94DA208E8990918835981710F454
:104F50008093883529E0829FC0011124B8018254D2
:104F60009A4C0E948120E091E235F091E3359E89D0
:104F70008689981710F00E945B1C0F900FBEDF917E
:104F8000CF911F910F910895FF920F931F93CF938D
:104F9000DF93EC018A859B858C589543A9F58C8914
:104FA0009D8935E38F39930779F1892B69F58091D4
:104FB0008235811122C0E091E235F091E335FF2482
:104FC000F3949E898689981708F4F12C8E010E5F60
:104FD0001F4FC8010E94DA202E89809188358217E0
:104FE00010F42093883539E0239FC0011124B801C3
:104FF00082549A4C0E94812008C0BE01645F7F4F9A
:105000008FE995E30E948120F12C8F2DDF91CF91C4
:105010001F910F91FF900895AF92BF92CF92DF92B0
:10502000EF92FF920F93A12CB12CC12CD12CE12C2B
:10503000F12C00E020E030E040EA50E063E572E06F
:1050400087EE99E20E942E268130E1F40E942A2EFA
:105050008130C1F4F8948093873510928A3510928C
:1050600089351092BE361092BF361092C03610921B
:10507000C1360F91FF90EF90DF90CF90BF90AF902F
:105080000C94221C0F91FF90EF90DF90CF90BF9077
:10509000AF900895F894109287350C945A1C809123
:1050A00082358F5F8093823508950FB6F8940F9202
:1050B0008091893590918A350F900FBE0895809127
:1050C000893590918A35089580918B350895CF92D6
:1050D000DF92EF92FF920F931F93CF93DF93809114
:1050E000823581118EC08091893590918A350196E3
:1050F00090938A35809389350091893510918A354E
:1051000001151105B9F48091AA359091AB35209124
:10511000A8353091A9353093AB352093AA359093BB
:10512000A9358093A835809184358F5F809384352D
:105130000E94DF2580911E0290911F02D12C08173A
:10514000190708F44DC039E0C32EE091AA35F0915B
:10515000AB358081811107C08FEF9FEF90931F02C5
:1051600080931E023DC0E091AA35F091AB350580D9
:10517000F681E02DC681D7812A813B810217130772
:1051800028F430931F0220931E022AC07E0182E081
:10519000E80EF11CC7010E94DA202C893D89232BDF
:1051A00021F0CE010C960E94DA202E89809188355C
:1051B000821710F420938835C29EC0011124B701D4
:1051C00082549A4C0E948120E091E235F091E335BF
:1051D0009E898689981708F4B8CFDD24D394B5CF7B
:1051E000E091E235F091E335E68989E0E89FF0014E
:1051F0001124E254FA4C8081823048F0DD24D394AB
:1052000006C0809186358F5F80938635D12C809142
:105210008535882311F0DD24D3948D2DDF91CF9136
:105220001F910F91FF90EF90DF90CF900895EF9234
:10523000FF920F931F93CF93DF930FB6F8940F92C3
:105240008091823581508093823580918235882388
:1052500011F080E053C080918B358823D1F349E071
:10526000F42EEE24E39480919F35882351F1E09150
:10527000A435F091A535C681D781CE010C960E9448
:10528000DA208E010E5F1F4FC8010E94DA208E893E
:1052900090918835981710F480938835F89EC00156
:1052A0001124B80182549A4C0E948120E091E23589
:1052B000F091E3359E8986899817A8F2E0928535AA
:1052C000D2CF80918635811109C08091853581309A
:1052D00009F0BFCF0E945B1C81E010C0C1E080914B
:1052E0008635882391F30E9467288111C093853504
:1052F00080918635815080938635F1CF0F900FBE17
:10530000DF91CF911F910F91FF90EF9008950F9330
:105310001F93CF93DF938C01EB010E944F284091A4
:10532000893550918A35F80120813181C20FD31F10
:105330004217530728F4C217D30748F481E004C08A
:1053400081E0C217D30720F04C175D0708F080E01A
:10535000F801D183C083882351F08091E235909188
:10536000E33502960E94DA20CE010E94FA250E94BF
:105370001729811102C00E945B1CDF91CF911F9100
:105380000F9108950F931F93CF93DF938C01009794
:1053900019F40E945B1C16C00E944F28C0918935E9
:1053A000D0918A35C00FD11F8091E2359091E335BD
:1053B00002960E94DA20CE010E94FA250E94172947
:1053C000882339F3DF91CF911F910F910895809138
:1053D0009535882349F10E944F28C09196350E9447
:1053E0001729CC23A1F30FB6F8940F92E0919B35C7
:1053F000F0919C35C681D781CE0102960E94DA20B9
:1054000080918B35815080938B358091953581507B
:10541000809395350F900FBE8F89988D0E94381B11
:10542000CE010E94381BD3CF8091BE35823010F060
:105430000E945B1C0E942E1ACACF8F929F92BF922D
:10544000CF92DF92EF92FF920F931F93CF93DF9350
:105450001F92CDB7DEB78C014A0169830E944F28A5
:1054600080918B356981681708F471C054E0E52E8E
:10547000F12C69E0D62EEA94DE9CB001112462542E
:105480007A4C41E0C8012EE0F29E800D911D11245E
:105490000E944425F80EE110EECF6091AA3570917C
:1054A000AB3542E0C801EEE0FE9E800D911D112457
:1054B0000E944425F80E6091A8357091A93542E00C
:1054C000C801FEE0FF9E800D911D11240E9444251D
:1054D000F80E44E066E975E3C8012EE0F29E800D07
:1054E000911D11240E944425F80E43E06CE875E3F9
:1054F000C801EEE0FE9E800D911D11240E944425FE
:10550000BF2CB80E8114910419F10091BE36109190
:10551000BF362091C0363091C13686B5080F111DB7
:10552000211D311DA99B06C0C090BD36D12CE12C98
:10553000F12C03C0C12CD12C76010C0D1D1D2E1D8C
:105540003F1DF401008311832283338301C0B12CFA
:105550000E9417298B2D0F90DF91CF911F910F91F2
:10556000FF90EF90DF90CF90BF909F908F90089525
:105570000F931F9380918235882321F081E08093DF
:105580008535B9C0109285358091BE369091BF3671
:10559000A091C036B091C13626B5820F911DA11DD4
:1055A000B11DA99B06C04091BD3650E060E070E09F
:1055B00003C040E050E0BA01480F591F6A1F7B1F2B
:1055C00040937A3550937B3560937C3570937D356D
:1055D00000917E3510917F35209180353091813555
:1055E0000417150726073707A0F4E091E235F0917C
:1055F000E33585A196A1A7A1B0A5801B910BA20BB5
:10560000B30B840F951FA61FB71F85A396A3A7A34F
:10561000B0A740937E3550937F356093803570936B
:105620008135A091E235B091E335E091E235F0911A
:10563000E3352D913C918789908D8217930760F017
:105640006091E2357091E3358091E2359091E335D8
:10565000675E7F4F0E947304E091E235F091E3357D
:1056600044E150E068E572E08789908D0E94C33084
:10567000892B61F06091E2357091E3358091E235DC
:105680009091E335675E7F4F0E94730499E0E0914B
:1056900088359E9FF0011124E254FA4C80818111DB
:1056A00006C080918835815080938835F0CFE09195
:1056B000883589E0E89FF0011124E254FA4CA18179
:1056C000B28112960D90BC91A02DB283A183CF011F
:1056D0000396A817B90731F412968D919C911397F0
:1056E000928381830180F281E02D8681978190935E
:1056F000E3358093E2351F910F9108950F931F9327
:10570000CF93DF93EC010FB6F8940F92009721F43A
:10571000C091E235D091E3358E010E5F1F4FC80175
:105720000E94DA208C899D89892B21F0CE010C966C
:105730000E94DA20B8018CE895E30E9481200F9046
:105740000FBE8091E2359091E335C817D907C1F4B7
:1057500080918735882319F00E945B1C1CC08091C2
:105760008B3590918C35981305C01092E3351092CB
:10577000E23511C0DF91CF911F910F910C94B82A9F
:1057800080918735882339F00FB6F8940F920E94E4
:10579000DF250F900FBEDF91CF911F910F910895DC
:1057A000CF93DF93EB016091E2357091E335645F55
:1057B0007F4F0E94A2208091E2359091E3350296BE
:1057C0000E94DA20CF3F8FEFD80761F46091E23575
:1057D0007091E3356E5F7F4F8CE895E3DF91CF9159
:1057E0000C9481208091893590918A358C0F9D1F72
:1057F000DF91CF910C94FA25CF93DF93EA01E091EA
:10580000E235F091E3357068758764876091E23521
:105810007091E335645F7F4F0E9481208091E23573
:105820009091E33502960E94DA20CF3F8FEFD807A0
:1058300061F46091E2357091E3356E5F7F4F8CE8E3
:1058400095E3DF91CF910C948120809189359091DF
:105850008A358C0F9D1FDF91CF910C94FA25CF9341
:10586000DF93EB016091E2357091E335645F7F4F28
:105870000E9481208091E2359091E33502960E944A
:10588000DA208091893590918A358C0F9D1FDF91A8
:10589000CF910C94FA250F931F93CF93DF93DC01E4
:1058A0001596ED91FC911697C681D7818E01045F04
:1058B0001F4FC8010E94DA2080918235811115C0E6
:1058C0008E010E5F1F4FC8010E94DA208E899091D1
:1058D0008835981710F480938835B9E08B9FC00104
:1058E0001124B80182549A4C03C0B8018FE995E3A2
:1058F0000E948120E091E235F091E3359E8986890E
:10590000891720F481E08093853501C080E0DF9124
:10591000CF911F910F9108950F931F93CF93DF9312
:105920007068FC0171836083C681D7810E94DA2090
:105930008E010E5F1F4FC8010E94DA208E89909160
:105940008835981710F480938835F9E08F9FC0014F
:105950001124B80182549A4C0E948120E091E235D2
:10596000F091E3359E898689891720F481E0809340
:10597000853501C080E0DF91CF911F910F9108958F
:1059800020918435FC0120832091893530918A351E
:10599000328321830895CF93DF930FB6F8940F924B
:1059A000E0918935F0918A35DB014D915C914F3F53
:1059B000BFEF5B07D1F0B0918435EC01A88129815C
:1059C0003A81BA1719F0E217F30788F4DF01A21B36
:1059D000B30BA417B50758F42E1B3F0B240F351F2C
:1059E000FB01318320830E94C02C80E001C081E054
:1059F0000F900FBEDF91CF91089581E080938535A0
:105A00000895009719F0FC0182A1089580E008959F
:105A1000009711F0FC0162A308958091E235909106
:105A2000E335089580918735882331F08091823560
:105A3000811104C082E0089581E0089580E0089516
:105A40000F931F93CF93DF93EC01009709F448C0A5
:105A50008E89E091E235F091E3359689891708F057
:105A60003FC02C853D8537FD0BC0E091E235F091BC
:105A7000E335968924E030E0291B31093D872C87E6
:105A800029E0829FC001112482549A4C2A853B85CB
:105A900028173907F9F48E010E5F1F4FC8010E94C5
:105AA000DA20E091E235F091E33586898E8B909192
:105AB0008835981710F48093883529E0829FC001BB
:105AC0001124B80182549A4CDF91CF911F910F910C
:105AD0000C948120E091E235F091E33586898E8B3C
